:020000040000FA
:060000000A128A1110280B
:10000800FE00030EF3000A08F400831203137F08AE
:10001800F5000A128A1186280A128A111328F80193
:10002800F90183010A128A1119281F308316031354
:10003800860088017F30810083120313861206131D
:1000480086138813081390308B00F601F701861386
:1000580086182F2830283A2876087704031D352873
:1000680036283A28861606130817881386193D2855
:100078003E28742876087704031D432844287428EA
:1000880086120613881308130130F8000030F900AF
:100098007908803AFF0080307F02031D552815300B
:1000A8007802031C582859285A286F2806308312CA
:1000B8000313A2001330A100AD30A000A00B6228EA
:1000C800A10B6228A20B62280130F8070318F90A6D
:1000D8000030F9074C288312031306178612881775
:1000E800061977287828292876087704031D7D289B
:1000F8007E282928061386128813081329280A122D
:100108008A1110288B1C89288A28DD288B108617CD
:1001180088130813861991289228C1281430F000F2
:1001280078087002F80079090318013EF900AF2831
:100138000630F2001330F100AD30F000F00BA228C9
:10014800F10BA228F20BA228A928FF30F807031800
:10015800F90AFF30F9077908803AFF0080307F02FA
:10016800031DB828013078020318BB28BC289C2836
:10017800831203130617861288170619C428C52880
:10018800C8280613861288130330F2008A30F1005B
:100198005530F000F00BCE28F10BCE28F20BCE280C
:1001A800D5280130F6000030F7001530F80000308F
:1001B800F900750883120313FF0074088A00730E90
:0801C8008300FE0E7E0E09000B
:00000001FF
