:020000040000FA
:060000000A128A110C280F
:10000800FE00030EF0000A08F1000A128A116128A6
:100018000A128A110F28F501F60183010A128A11C2
:1000280015281F3083160313860088017F3081004E
:10003800831203138612061386138813081390304D
:100048008B00861828282928322875087604031D6D
:100058002E282F28322886160613081786193528C1
:100068003628502875087604031D3B283C2850285C
:100078008612061308136630F4007630F300C13098
:10008800F200F20B4528F30B4528F40B45288312A0
:10009800031306178612881706195328542825288B
:1000A80075087604031D59285A2825280613861230
:1000B800881325280A128A110C288B1C64286528A5
:1000C8007B280130F5000030F600831203138617F1
:1000D800061D6F28702874280617861288170813BB
:1000E8000619772878287B28061386128813710842
:0C00F8008A00700E8300FE0E7E0E0900D0
:00000001FF
