:020000040000FA
:060000000A128A1110280B
:10000800FE00030EF3000A08F400831203137F08AE
:10001800F5000A128A1190280A128A111328F80189
:10002800F90183010A128A1119281F308316031354
:10003800860088017F30810083120313861206131D
:1000480086138813081390308B00F601F701861386
:1000580086182F2830283A2876087704031D352873
:1000680036283A28861606130817881386193D2855
:100078003E287E2876087704031D432844287E28D6
:1000880086120613881308130130F8000030F900AF
:100098007908803AFF0080307F02031D552815300B
:1000A8007802031C582859285A28722806308312C7
:1000B8000313A2001330A100AD30A000A00B6228EA
:1000C800A10B6228A20B62280130F8070318F90A6D
:1000D8000030F9074C280617861288178312031375
:1000E800061D772878287E287608770403197D2846
:1000F8007E286F28061981288228292876087704FF
:10010800031D8728882829280613861288130813B0
:1001180029280A128A1110288B1C93289428EC2865
:100128008B1086178813081386199B289C28D028BB
:100138001430F00078087002F80079090318013EBD
:10014800F900B9280630F2001330F100AD30F000A4
:10015800F00BAC28F10BAC28F20BAC28B328FF301D
:10016800F8070318F90AFF30F9077908803AFF0001
:1001780080307F02031DC228013078020318C52889
:10018800C628A628CA2806178612881783120313BA
:100198000619CF28D028C7280619D328D428D72845
:1001A8000613861288130130F6000030F700153068
:1001B800F8000030F900CB30F200EC30F100843068
:1001C800F000F00BE528F10BE528F20BE52800001C
:1001D800750883120313FF0074088A00730E8300E6
:0601E800FE0E7E0E090070
:00000001FF
